:020000040000FA
:060000000A128A11E42F30
:100008000A128A1505210A128A117008831203132D
:10001800930008008312031351088039D200520854
:10002800DB005108D2005207D3005308E200D01F6A
:100038001E281F282028621462080319242825284E
:100048003528620A031D29282A2832280030D100C1
:100058000030D0000030CF000030CE00D017D101E2
:100068003D280030D1000030D0000030CF000030F3
:10007800CE004D088039D2005208DB064D08D20068
:100088005207D3005308E300CC1F4B284C284D28B7
:10009800631463080319512852286228630A031D50
:1000A800562857285F280030CD000030CC0000309B
:1000B800CB000030CA00CC17CD016A280030CD0033
:1000C8000030CC000030CB000030CA004D084C0492
:1000D8004B044A04031D712872288B280030D10074
:1000E8000030D0000030CF000030CE008030D00487
:1000F8007F30D1045B08D2005208D1045108CD00EA
:100108005008CC004F08CB004E08CA00EA29620804
:10011800031D8F28902899280030CD000030CC008E
:100128000030CB000030CA00EA296208D200D301AF
:100138005308D50063085202D400031CD5035408A1
:100148007F3EDC0055080318013E003EDD005108E3
:10015800DA005008D9004F08D8004E08D700003000
:10016800D1000030D0000030CF000030CE00003089
:10017800E1000030E0000030DF000030DE00E30185
:100188000F2963080319C928CA28EA280130D200B0
:100198000310D70DD80DD90DDA0DD20BCC280130AC
:1001A800D2000310CE0DCF0DD00DD10DD20BD52816
:1001B800E11FDF28E028E1284E140130D2000310A7
:1001C800DE0DDF0DE00DE10DD20BE3284D085A02DC
:1001D800031DF8284C085902031DF8284B0858023B
:1001E800031DF8284A085702031CFB28FC280B2982
:1001F80061174A08D7024B08031C4B0FD8024C085A
:10020800031C4C0FD9024D08031C4D0FDA020130B4
:10021800D2005208E3071A306302031C1429152977
:10022800C5285A0859045804570403191C291D29BC
:100238003C295E143C290130D2000310CE0DCF0DAD
:10024800D00DD10DD20B2129E11F2B292C292D29C5
:100258004E140130D2000310DE0DDF0DE00DE10D6C
:10026800D20B2F29FF30DC070318DD0AFF30DD072A
:10027800D01F3F2940291F29E301E11F44294529AF
:100288006129FF305E05D200FF305F05D300FF30E3
:100298006005D4007F306105D50055085404530427
:1002A80052040319582959295C29E301E30A6129F1
:1002B8004E1C5F296029612959296308031965299A
:1002C800662997290130CE07003003180130CF077F
:1002D800003003180130D007003003180130D1076F
:1002E800511C7729782997294E08D2004F08D30046
:1002F8005008D4005108D5000130D600550DD50C52
:10030800D40CD30CD20CD60B82295508D100540832
:10031800D0005308CF005208CE000130DC07031884
:10032800DD0A0030DD075D08803AFF0080307F027B
:10033800031DA029FF305C02031CA329A429B229AC
:10034800FF3083120313DC000030DD000030D100E1
:100358000030D0000030CF000030CE0083120313ED
:100368005D08803AFF0080307F02031DBD290130FF
:100378005C020318C029C129CE2983120313DC01AA
:10038800DD010030D1000030D0000030CF00003057
:10039800CE00DB01831203135C08D2005208E2008E
:1003A800621CD729D829DA29D017DE297F30D20054
:1003B8005208D0056208D2000310520CD30053082B
:1003C800D1005B08D2005208D104822808007308C3
:1003D800803983120313A0002008F8007308A000D6
:1003E8002007A1002108FA00F21FFB29FC29FD299A
:1003F8007A147A080319012A022A122A7A0A031D92
:10040800062A072A0F2A0030F3000030F2000030D5
:10041800F1000030F000F217F3011A2A0030F3005F
:100428000030F2000030F1000030F0007708803929
:10043800A0002008F900790878060319242A252A3B
:10044800262A78177708A0002007A1002108F900BC
:10045800F61F2F2A302A312A791479080319352AE8
:10046800362A462A790A031D3A2A3B2A432A0030AB
:10047800F7000030F6000030F5000030F400F61701
:10048800F7014E2A0030F7000030F6000030F50082
:100498000030F4007A0879020318532A542A982A5B
:1004A800781F572A582A5C2A8030A0002008F806AE
:1004B8007A08A0002008FB007908A0002008FA00AC
:1004C8007B08A0002008F9007008A0002008FB00A5
:1004D8007408A0002008F0007B08A0002008F400A1
:1004E8007108A0002008FB007508A0002008F10092
:1004F8007B08A0002008F5007208A0002008FB0077
:100508007608A0002008F2007B08A0002008F6006A
:100518007308A0002008FB007708A0002008F3005B
:100528007B08A0002008F700FB017908A000A101C2
:100538002108A3007A082002A200031CA3032308B1
:10054800803AFF0080307F02031DAC2A1A30220255
:10055800031CAF2AB02AF12A7308720471047004CC
:10056800031DB72AB92A0130BA2A003083120313AF
:10057800A0002008FB000030F3000030F20000303B
:10058800F1000030F0007908A0002008FA00F72AEE
:100598007B1CCF2AD02ADB2A7B0883120313A000F6
:1005A8000310200C0138A1002108FB00DD2A0310EC
:1005B800FB0C701CE02AE12AE22AFB1701308312A7
:1005C8000313A000730DF30CF20CF10CF00CA00B4C
:1005D800E62A0130A0002008FA0779087A02031CED
:1005E800F62AF72ACC2A781BFA2AFB2A4A2B7A08F9
:1005F800031DFF2A002B092B0030F3000030F20006
:100608000030F1000030F000822C7408F007750803
:1006180003110318013E0319122BF1077608031181
:100628000318013E0319192BF20777080311031861
:10063800013E0319202BF307731C232B242B022CB8
:100648007B1C272B282B332B7B0883120313A0003A
:100658000310200C0138A1002108FB00352B0310E2
:10066800FB0C701C382B392B3A2BFB1701308312EB
:100678000313A000730DF30CF20CF10CF00CA00B9B
:100688003E2B0130A0002008FA07022C7308803A9C
:10069800FF007708803A7F02031D5C2B7608720200
:1006A800031D5C2B75087102031D5C2B7408700216
:1006B80003185F2B602BBA2BFF3083120313A000A3
:1006C800FF30A100FF30A200FF30A3007408A4008F
:1006D8007508A5007608A6007708A7007008A40288
:1006E8007108031C710F792B7A2BA5027208031C61
:1006F800720F7F2B802BA6027308031C730F852BA8
:10070800862BA7022408A00725080318250F8D2B80
:100718008E2BA10726080318260F932B942BA207CC
:1007280027080318270AA3072308F3002208F20062
:100738002108F1002008F0008030A0002008F80609
:10074800FB09FB0A7B08031DAA2BAB2BC82B013026
:10075800F007003003180130F107003003180130AA
:10076800F207003003180130F307C82B7408F002B1
:100778007508031C750FF1027608031C760FF20248
:100788007708031C770FF30273087204710470046E
:10079800031DCF2BD02BFE2B7B08031DD42BD52B71
:1007A800FE2B0030F3000030F2000030F100003082
:1007B800F000822C013083120313A0000310F00D07
:1007C800F10DF20DF30DA00BE22BFB1FEC2BED2B23
:1007D800EE2B70147B1CF12BF22BF52B0314FB0D65
:1007E800F72B0310FB0D7A080319FB2BFC2BFE2BB0
:1007F8000130FA02F21F012C022CDE2BF901FB1F3B
:10080800062C072C152C7B087F3903190C2C0D2C72
:10081800102CF901F90A152C701C132C142C152C0A
:100828000D2C79080319192C1A2C502C0130F007BB
:10083800003003180130F107003003180130F207C7
:10084800003003180130F307731C2B2C2C2C502C70
:10085800700883120313A0007108A1007208A20097
:100868007308A3000130A400230DA30CA20CA10C53
:10087800A00CA40B382C2308F3002208F20021084E
:10088800F1002008F0007A0A03194B2C4C2C502C4C
:100898000130A0002008FA077A0A0319542C552CB5
:1008A8005A2C7A08031D592C5A2C682C0030F30056
:1008B8000030F2000030F1000030F0007A08031D2B
:1008C800662C672C682CF8017A1C6B2C6C2C6E2C0F
:1008D800F217742C7F3083120313A0002008F2054E
:1008E8007A0883120313A0000310200CA10021082A
:1008F800F300F81F802C812C822CF3170800831238
:10090800031333088039B8003808BD003308B8002D
:100918003807B9003908C300B21F932C942C952CC2
:10092800431443080319992C9A2CA92C430A031D34
:100938009E2C9F2CA72C0030B3000030B200003052
:10094800B1000030B000B217B12C0030B300003055
:10095800B2000030B1000030B00037088039B8006C
:100968003808BD063708B8003807B9003908C2008A
:10097800B61FBF2CC02CC12C421442080319C52C29
:10098800C62CD52C420A031DCA2CCB2CD32C0030E4
:10099800B7000030B6000030B5000030B400B6171C
:1009A800DD2C0030B7000030B6000030B500003054
:1009B800B40042080319E12CE22CE72C4308031D7C
:1009C800E62CE72CF02C0030B3000030B2000030E9
:1009D800B1000030B000E32F3008B8003808F0004C
:1009E80036080A128A15BE210A128A117108831262
:1009F8000313C9007008C8004808B800B901BA0153
:100A0800BB013B08C1003A08C0003908BF003808DC
:100A1800BE004908B800B901BA01BB013B08C700CC
:100A28003A08C6003908C5003808C4003108B800BB
:100A38003808F00035080A128A15BE210A128A11F0
:100A4800710883120313C9007008C8004808B80069
:100A5800B901BA01BB013808BE07390803110318E8
:100A6800013E0319382DBF073A0803110318013E48
:100A780003193F2DC0073B0803110318013E031952
:100A8800462DC1074908B800B901BA01BB013808A9
:100A9800C407390803110318013E0319542DC5076B
:100AA8003A0803110318013E03195B2DC6073B08DA
:100AB80003110318013E0319622DC7073208B80055
:100AC8003808F00034080A128A15BE210A128A1161
:100AD800710883120313C9007008C8004808B800D9
:100AE800B901BA01BB013808BE0739080311031858
:100AF800013E0319802DBF073A0803110318013E70
:100B08000319872DC0073B0803110318013E031979
:100B18008E2DC1074908B800B901BA01BB013808D0
:100B2800C407390803110318013E03199C2DC50792
:100B38003A0803110318013E0319A32DC6073B0801
:100B480003110318013E0319AA2DC7070830B8007E
:100B58000310BE0DBF0DC00DC10DB80BAC2D310873
:100B6800B8003808F00034080A128A15BE210A12A3
:100B78008A11710883120313C9007008C800480855
:100B8800B8004908B900BA01BB013808BE073908DE
:100B980003110318013E0319D22DBF073A080311A8
:100BA8000318013E0319D92DC0073B080311031888
:100BB800013E0319E02DC1073008B8003808F000DD
:100BC80035080A128A15BE210A128A117108831281
:100BD8000313C9007008C8004808B8004908B900DC
:100BE800BA01BB013808BE07390803110318013ED2
:100BF8000319FF2DBF073A0803110318013E031913
:100C0800062EC0073B0803110318013E03190D2ED9
:100C1800C1070830B8000310BE0DBF0DC00DC10DCF
:100C2800B80B0F2E3008B8003808F00034080A1244
:100C38008A15BE210A128A11710883120313C9008A
:100C48007008C8004808B8004908B900BA01BB01D3
:100C58003808BE07390803110318013E0319352E59
:100C6800BF073A0803110318013E03193C2EC007B9
:100C78003B0803110318013E0319432EC10731082D
:100C8800B8003808F00036080A128A15BE210A1280
:100C98008A11710883120313C9007008C800480834
:100CA800B8004908B900BA01BB013808C4073908B7
:100CB80003110318013E0319622EC5073A080311F0
:100CC8000318013E0319692EC6073B0803110318D0
:100CD800013E0319702EC7073208B8003808F00023
:100CE80035080A128A15BE210A128A117108831260
:100CF8000313C9007008C8004808B8004908B900BB
:100D0800BA01BB013808C407390803110318013EAA
:100D180003198F2EC5073A0803110318013E03195A
:100D2800962EC6073B0803110318013E03199D2E92
:100D3800C7073208B8003808F00036080A128A15C2
:100D4800BE210A128A11710883120313C9007008A0
:100D5800C8004808B8004908B900BA01BB01083002
:100D68000310B80DB90DBA0DBB0DFF3E031DB42E0F
:100D78003808C407390803110318013E0319C52EA2
:100D8800C5073A0803110318013E0319CC2EC607FC
:100D98003B0803110318013E0319D32EC7073E0869
:100DA800B8003F08B9004008BA004108BB00183035
:100DB8000310BB0CBA0CB90CB80CFF3E031DDC2E9B
:100DC8003808C407390803110318013E0319ED2E2A
:100DD800C5073A0803110318013E0319F42EC60784
:100DE8003B0803110318013E0319FB2EC7070830FF
:100DF800B8000310BE0DBF0DC00DC10DB80BFD2E00
:100E080043084207B800B901B90D3808823EC80046
:100E180039080318013EFF3EC9002F2F0130B800E2
:100E28000310C40DC50DC60DC70DB80B142FC11F77
:100E38001E2F1F2F202F44140130B8000310BE0DA1
:100E4800BF0DC00DC10DB80B222FFF30C807031806
:100E5800C90AFF30C907C61F322F332F122FC2010C
:100E6800C11F372F382F542FFF303E05B800FF30F1
:100E78003F05B900FF304005BA007F304105BB008F
:100E88003B083A043904380403194B2F4C2F4F2FD1
:100E9800C201C20A542F441C522F532F542F4C2FD7
:100EA80042080319582F592F8A2F0130C4070030E0
:100EB80003180130C507003003180130C607003099
:100EC80003180130C707471C6A2F6B2F8A2F440865
:100ED800B8004508B9004608BA004708BB00013009
:100EE800BC003B0DBB0CBA0CB90CB80CBC0B752F75
:100EF8003B08C7003A08C6003908C5003808C400CE
:100F08000130C8070318C90A0030C9074908803AE0
:100F1800FF0080307F02031D932FFF304802031C1F
:100F2800962F972FA22F7F3083120313C70080308C
:100F3800C6000030C5000030C400D72F8312031349
:100F48004908803AFF0080307F02031DAD2F013031
:100F580048020318B02FB12FBD2F0030831203139E
:100F6800C7000030C6000030C5000030C400BD0115
:100F7800D72F831203134808B8003808C300FF307E
:100F8800C405FF30C5057F30C6050030C705431CC2
:100F9800CE2FCF2FD02FC6174308B8000310380C18
:100FA800B9003908C7003D08B8003808C704470821
:100FB800B3004608B2004508B1004408B000080074
:100FC80083120313E801E901EA01EB01EC01ED01E9
:100FD800EE0183160313A001A101A201A301A4013C
:100FE800A501A601A701A801A901AA01AB01AC01AD
:100FF80083010A128A159F2DFF1B0A2883137F1865
:1010080083170008840A0319FF0A080008308A00B9
:101018000408840A82070034013400340A34003496
:1010280064340034E83403341034273443344F3400
:101038004E3454343A340034533431343A3400346E
:10104800533432343A3400342534643400342E3482
:0A1058000034303400345634003404
:1011E6000A128A1505210A128A1583160313111489
:1011F60008000A128A1505210A128A158316031396
:10120600111508008316031314190A290B29052939
:1012160011081F39031D1029112905290800F2009C
:101226007208831203138800861006140630F10034
:101236003030F000F00B1D29F10B1D290000831240
:10124600031306100800F2007208831203138800C5
:10125600861406140630F1003030F000F00B312908
:10126600F10B312900008312031306100800F40065
:101276007403031D3F29402948297308803E0A123A
:101286008A1512210A128A15552902307406031D81
:101296004D294E2955297308C03E0A128A15122176
:1012A6000A128A150800831603138601880183161D
:1012B6000317890188010814881483120313850112
:1012C6008601870188010030A3000130A200863024
:1012D600A100A030A0000A128A1513220A128A154C
:1012E6000800803083120313AB062F08F3002E0884
:1012F600F2002D08F1002C08F0002B08F7002A0850
:10130600F6002908F5002808F4000A128A11EB21D4
:101316000A128A15730883120313AB007208AA0017
:101326007108A9007008A8000800AD297408FF001C
:10133600730884000A128A1500200A128A150A12F6
:101346008A1526210A128A150130F3070318F40AB2
:101356000030F407740883120313FF007308840037
:101366000A128A1500200A128A15003A031DBC29A2
:10137600BD2999290800F800F401F5017008F2006A
:10138600F3017208F6007308F700781CCB29CC2904
:10139600D2297608F4070318F50A7708F50701300D
:1013A6000310F60DF70DFF3E031DD3290310F80CAD
:1013B6007808031DDF29E029C8297508F10074089B
:1013C600F00008000A128A1505210A128A158316EA
:1013D600031391150A128A1505210A128A1583121A
:1013E60003131308F200F3017208F4007308F50002
:1013F6000A128A1505210A128A1570037104031D43
:10140600052A062A0A2A8316031391120D2A831621
:101416000313911611167508F1007408F000080000
:101426002830831203139400831603139101831249
:1014360003132008A4002108A5002208A6002308FB
:10144600A70002300310A40DA50DA60DA70DFF3EA3
:10145600031D252A2708F3002608F2002508F100B7
:101466002408F0000030F7007A30F6001230F5005C
:101476000030F4000A128A151D230A128A15700814
:10148600FF3E831603139300940187150716080081
:10149600780879040319502A512A802AFD01FD0A89
:1014A6005F2A01300310F80DF90DFF3E031D552A82
:1014B6000130FC007C08FD07F91F622A632A542AC2
:1014C60079087B02031D692A78087A02031C6C2AB4
:1014D6006D2A732A7808FA027908031CFB03FB02BB
:1014E60001300310F90CF80CFF3E031D742A01307D
:1014F600FD02031D7F2A802A632A7B08F9007A08E9
:10150600F8000800F501F6017008710403198C2A29
:101516008D2AC42AF701F70A9B2A01300310F00D21
:10152600F10DFF3E031D912A0130F4007408F70700
:10153600F11F9E2A9F2A902A01300310F50DF60D01
:10154600FF3E031DA02A71087302031DAC2A700812
:101556007202031CAF2AB02AB72A7008F202710879
:10156600031CF303F302751401300310F10CF00CA5
:10157600FF3E031DB82A0130F702031DC32AC42A01
:101586009F2A7608F1007508F00008001430F40070
:101596007930F300F30BCD2AF40BCD2AD22A303062
:1015A6000A128A1512210A128A150730F4007D30B4
:1015B600F300F30BDC2AF40BDC2A30300A128A150E
:1015C60012210A128A150F30F4004730F300F30B8C
:1015D600EA2AF40BEA2AEF2A30300A128A15122177
:1015E6000A128A15D030F400C930F300F30BF92A39
:1015F600F40BF92AFE2A38300A128A1512210A1229
:101606008A1510300A128A1512210A128A1501301B
:101616000A128A1512210A128A1506300A128A152A
:1016260012210A128A150C300A128A1512210A1280
:101636008A1508000030FC000030FB000030FA007C
:101646000030F900730872047104700403192C2B1E
:101656002D2B7A2BFD01FD0A3D2B0130F8000310DE
:10166600F00DF10DF20DF30DF80B322B0130F800F1
:101676007808FD07F31F402B412B302B0130F80073
:101686000310F90DFA0DFB0DFC0DF80B432B730837
:101696007702031D582B72087602031D582B71081A
:1016A6007502031D582B70087402031C5B2B5C2B00
:1016B6006B2B7008F4027108031C710FF502720897
:1016C600031C720FF6027308031C730FF7027914DA
:1016D60001300310F30CF20CF10CF00CFF3E031D6D
:1016E6006C2B0130FD02031D792B7A2B412B7C08D4
:1016F600F3007B08F2007A08F1007908F000080090
:101706000310720D730DF4007408FA007A08031DB5
:101716008D2B8E2B972B0030F3000030F20000301B
:10172600F1000030F000FC2B7008F4007108F500A1
:101736007208F6007308F7001F300310F70CF60C5A
:10174600F50CF40CFF3E031DA02B7408F800780876
:10175600F900F217FF30F005FF30F105FF30F20512
:101766000030F3059630FA02FA1FBA2BBB2BD52BA5
:101776007A08803A973E0318C12BC22BC32B8E2BB7
:1017860001300310F30CF20CF10CF00CFF3E031DBC
:10179600C42B0130F4007408FA07031DD32BD42B95
:1017A600C32BEC2B20307A02031CDA2BDB2BE72B26
:1017B6008E2B0130F4000310F00DF10DF20DF30D38
:1017C600F40BDE2B0130FA027A08031DEB2BEC2B0F
:1017D600DC2B79080319F02BF12BFC2BF009F1090E
:1017E600F209F309F00A0319F10A0319F20A0319B7
:1017F600F30A0800F80078080319022C032C172CAA
:10180600F31F062C072C172C7009FA007109FB0030
:101816007209FC007309FD00FA0A0319FB0A031991
:10182600FC0A0319FD0A1F2C7308FD007208FC0050
:101836007108FB007008FA007308720471047004E2
:10184600031D262C272C302C0030F3000030F2002C
:101856000030F1000030F000B62C9630F400740829
:10186600F900422C0130F4007408F9070130031026
:10187600FD0CFC0CFB0CFA0CFF3E031D3A2CFE3053
:101886007D05031D472C482C352C642C0130F400B3
:101896007408F9070130FA07003003180130FB0716
:1018A600003003180130FC07003003180130FD0733
:1018B60001300310FD0CFC0CFB0CFA0CFF3E031D63
:1018C6005C2CFF307D05031D692C6A2C492C762C77
:1018D6000130F9020130F4000310FA0DFB0DFC0D86
:1018E600FD0DF40B6F2CFC1B792C7A2C802C02300E
:1018F600790203187F2C802C6B2C7918832C842C6E
:101906008C2CFF30FA05FF30FB057F30FC05FF30DD
:10191600FD050310F90C7908F400F501F601F7014D
:1019260018300310F40DF50DF60DF70DFF3E031DEF
:10193600942C7408FA047508FB047608FC047708EE
:10194600FD0478080319A82CA92CAE2CF31FAC2C87
:10195600AD2CAE2CFD177D08F3007C08F2007B0849
:10196600F1007A08F000080083120313AB0021305F
:10197600A3002308A600882D25302C060319C42CA5
:10198600C52CD12C2C08A3002B0884002308831314
:1019960080000130A3002308AB07882DA701013082
:1019A600A007FF30200784000A128A150A200A12AF
:1019B6008A15AC00A300A4012408003A0319E42CFC
:1019C600882D2308003A03199A2D643A0319EF2C3F
:1019D6000D3A0319EF2C882D26088400831300087E
:1019E600A900840A0008AA000230A3002308A6075B
:1019F600AA1FFE2CFF2C082D0330A3002308A704E2
:101A0600A909AA09A90A0319AA0AAC01AC0A2C0851
:101A1600A3002307013E84000A128A150A200A122F
:101A26008A15A4000A128A150A200A128A15A50028
:101A360025082A02031D212D240829020318242D16
:101A4600252D262D302D0130A3002308AC070530A7
:101A56002C06031D2F2D302D0A2D270803390319B7
:101A6600352D362D412D2D30A3002B08840023085B
:101A7600831380000130A3002308AB072C08A300C2
:101A86002308A8007F2D0A30F8000030F900280846
:101A9600A3002307013E84000A128A150A200A12AF
:101AA6008A15F0000A128A150A200A128A15F10010
:101AB6002A08F3002908F2000A128A1585220A125A
:101AC6008A157108FB007008FA000A128A154B2263
:101AD6000A128A157808303E83120313A4002408DC
:101AE600AC002C08A3002B08840023088313800075
:101AF6000130A3002308AB07FF30A3002308A80783
:101B0600280A031D872D882D462D0130A007FF309A
:101B1600200784000A128A150A200A128A15A300D1
:101B26002308AC002C08031D992D9A2DBF2C2B08D9
:101B360084008313800108000A128A1556210A12AE
:101B46008A150A128A15C9220A128A15F301F30A9E
:101B560001300A128A153A210A128A1503308312B5
:101B66000313E5009730E400E40BB72DE50BB72D22
:101B76001130F3008030F4000A128A1598210A12F7
:101B86008A15063083120313E4006408F30001305B
:101B96000A128A153A210A128A150B30F300803090
:101BA600F4000A128A1598210A128A150D3083123A
:101BB6000313E4006408F30001300A128A153A217F
:101BC6000A128A151530F3008030F4000A128A15BD
:101BD60098210A128A150A128A15F3200A128A1502
:101BE6005130F0000030F1000A128A1104200A1266
:101BF6008A150030F000F1000A128A15E5210A1252
:101C06008A15700883120313E4006408EC000A12B4
:101C16008A15FC200A128A150D3083120313E5007B
:101C2600FB30E400E40B152EE50B152E0A128A157F
:101C3600F3200A128A154130F0000030F1000A1232
:101C46008A1104200A128A150030F000F1000A12E7
:101C56008A15E5210A128A15700883120313E40017
:101C66006408ED000A128A15FC200A128A150D3046
:101C760083120313E500FB30E400E40B402EE50B72
:101C8600402E193083120313E4006408A0006D0887
:101C9600E500E6016508A1006608A2006E300A129A
:101CA6008A15B7240A128A15831203136C08E400F6
:101CB600E501E601E7016708F3006608F20065083A
:101CC600F1006408F00000300A128A15FD230A129A
:101CD6008A15730883160313A7007208A6007108F5
:101CE600A5007008A400433083120313CD007F3093
:101CF600CC000030CB000030CA004030B300A0302A
:101D0600B2000030B1000030B0008316031327087C
:101D160083120313B70083160313260883120313D3
:101D2600B60083160313250883120313B500831622
:101D36000313240883120313B4000A128A1183249E
:101D46000A128A15831203133308D1003208D00011
:101D56003108CF003008CE000A128A110E200A126E
:101D66008A15831203134D0883160313A7008312E3
:101D760003134C0883160313A600831203134B08A0
:101D860083160313A500831203134A08831603134D
:101D9600A4002708F3002608F2002508F10024080D
:101DA600F0000A128A1583230A128A157108831213
:101DB6000313EB007008EA004230B300C830B200EB
:101DC6000030B1000030B0006A08F0006B08F10086
:101DD6000030F11BFF30F200F30001300A128A15C1
:101DE600FD230A128A15730883120313AB007208C7
:101DF600AA007108A9007008A80083160313270813
:101E060083120313AF0083160313260883120313EA
:101E1600AE0083160313250883120313AD00831641
:101E26000313240883120313AC000A128A157421C3
:101E36000A128A15831203132B08B7002A08B60064
:101E46002908B5002808B4000A128A1183240A1248
:101E56008A1583120313330883160313A300831210
:101E66000313320883160313A200831203133108E7
:101E760083160313A100831203133008831603137A
:101E8600A0002308F3002208F2002108F100200830
:101E9600F0000A128A1583230A128A157108831222
:101EA6000313E9007008E8001930E4006408A00094
:101EB6006B08A2006A08A100A8300A128A15B72486
:101EC6000A128A15193083120313E4006408A0006D
:101ED6006908A2006808A100AB300A128A15B72467
:101EE6000A128A15F30102300A128A153A210A12D9
:101EF6008A15A830F3000030F4000A128A159821DA
:101F06000A128A151C30F3008030F4000A128A1572
:101F160098210A128A15831203136908803AFF0072
:101F260080307F02031D992F0A30680203189C2F08
:101F36009D2FB02F1E30F3008030F4000A128A1550
:101F460098210A128A15AB30F3000030F4000A1209
:101F56008A1598210A128A15B92FAB30F300003082
:101F6600F4000A128A1598210A128A152030F30005
:101F76008030F4000A128A1598210A128A15073051
:101F860083120313E4006408F30002300A128A1570
:101F96003A210A128A150A30831203136D020318B6
:101FA600D52FD62FE92F1E30F3008030F4000A1209
:101FB6008A1598210A128A156E30F3000030F40053
:101FC6000A128A1598210A128A15F22F6E30F3002A
:101FD6000030F4000A128A1598210A128A15033075
:101FE60083120313E5009730E400E40BF82FE50BAA
:0A1FF600F82FEE2D0A128A110028C0
:04400E00D4E0FFFFFC
:00000001FF
