:020000040000FA
:060000000A128A11EA2F2A
:10001200F200720883120313880086140614063055
:10002200F1003030F000F00B1428F10B142800001E
:10003200831203130610080083120313AB0021304E
:10004200A3002308A600EE2825302C0603192A282F
:100052002B2837282C08A3002B088400230883139D
:1000620080000130A3002308AB07EE28A70101306E
:10007200A007FF30200784000A128A150A200A12FC
:100082008A11AC00A300A4012408003A03194A28EB
:10009200EE282308003A03190029643A0319552867
:1000A2000D3A03195528EE28260884008313000808
:1000B200A900840A0008AA000230A3002308A607A8
:1000C200AA1F642865286E280330A3002308A7040A
:1000D200A909AA09A90A0319AA0AAC01AC0A2C089F
:1000E200A3002307013E84000A128A150A200A127D
:1000F2008A11A4000A128A150A200A128A11A5007E
:1001020025082A02031D87282408290203188A28A1
:100112008B288C2896280130A3002308AC070530D1
:100122002C06031D952896287028270803390319E1
:100132009B289C28A7282D30A3002B088400230885
:10014200831380000130A3002308AB072C08A3000F
:100152002308A800E5280A30F8000030F900280832
:10016200A3002307013E84000A128A150A200A12FC
:100172008A11F0000A128A150A200A128A11F10065
:100182002A08F3002908F2000A128A1559210A12D4
:100192008A117108FB007008FA000A128A151F21E1
:1001A2000A128A117808303E83120313A40024082D
:1001B200AC002C08A3002B088400230883138000C2
:1001C2000130A3002308AB07FF30A3002308A807D0
:1001D200280A031DED28EE28AC280130A007FF30C5
:1001E200200784000A128A150A200A128A11A30023
:1001F2002308AC002C08031DFF28002925282B0802
:1002020084008313800108008312031333088039AA
:10021200B8003808BD003308B8003807B9003908FB
:10022200C300B21F152916291729431443080319BD
:100232001B291C292B29430A031D2029212929298D
:100242000030B3000030B2000030B1000030B00026
:10025200B21733290030B3000030B2000030B100D1
:100262000030B00037088039B8003808BD063708BA
:10027200B8003807B9003908C200B61F412942291F
:100282004329421442080319472948295729420A97
:10029200031D4C294D2955290030B7000030B60006
:1002A2000030B5000030B400B6175F290030B70047
:1002B2000030B6000030B5000030B4004208031927
:1002C2006329642969294308031D68296929722958
:1002D2000030B3000030B2000030B1000030B00096
:1002E200652C3008B8003808F00036080A128A1562
:1002F20092200A128A11710883120313C90070082E
:10030200C8004808B800B901BA01BB013B08C100E6
:100312003A08C0003908BF003808BE004908B800D2
:10032200B901BA01BB013B08C7003A08C600390847
:10033200C5003808C4003108B8003808F000350894
:100342000A128A1592200A128A1171088312031363
:10035200C9007008C8004808B800B901BA01BB0159
:100362003808BE07390803110318013E0319BA29D8
:10037200BF073A0803110318013E0319C129C00738
:100382003B0803110318013E0319C829C107490894
:10039200B800B901BA01BB013808C4073908031112
:1003A2000318013E0319D629C5073A080311031899
:1003B200013E0319DD29C6073B0803110318013E5C
:1003C2000319E429C7073208B8003808F0003408D6
:1003D2000A128A1592200A128A11710883120313D3
:1003E200C9007008C8004808B800B901BA01BB01C9
:1003F2003808BE07390803110318013E0319022AFF
:10040200BF073A0803110318013E0319092AC0075E
:100412003B0803110318013E0319102AC1074908BA
:10042200B800B901BA01BB013808C4073908031181
:100432000318013E03191E2AC5073A0803110318BF
:10044200013E0319252AC6073B0803110318013E82
:1004520003192C2AC7070830B8000310BE0DBF0DC0
:10046200C00DC10DB80B2E2A3108B8003808F000B3
:1004720034080A128A1592200A128A11710883120C
:100482000313C9007008C8004808B8004908B90039
:10049200BA01BB013808BE07390803110318013E2F
:1004A2000319542ABF073A0803110318013E03191E
:1004B2005B2AC0073B0803110318013E0319622A95
:1004C200C1073008B8003808F00035080A128A154A
:1004D20092200A128A11710883120313C90070084C
:1004E200C8004808B8004908B900BA01BB01380879
:1004F200BE07390803110318013E0319812ABF07F9
:100502003A0803110318013E0319882AC0073B0861
:1005120003110318013E03198F2AC1070830B800DE
:100522000310BE0DBF0DC00DC10DB80B912A3008CE
:10053200B8003808F00034080A128A1592200A120C
:100542008A11710883120313C9007008C800480891
:10055200B8004908B900BA01BB013808BE0739081A
:1005620003110318013E0319B72ABF073A08031102
:100572000318013E0319BE2AC0073B0803110318E2
:10058200013E0319C52AC1073108B8003808F00036
:1005920036080A128A1592200A128A1171088312E9
:1005A2000313C9007008C8004808B8004908B90018
:1005B200BA01BB013808C407390803110318013E08
:1005C2000319E42AC5073A0803110318013E031967
:1005D200EB2AC6073B0803110318013E0319F22A4E
:1005E200C7073208B8003808F00035080A128A1521
:1005F20092200A128A11710883120313C90070082B
:10060200C8004808B8004908B900BA01BB01380857
:10061200C407390803110318013E0319112BC5073A
:100622003A0803110318013E0319182BC6073B08A9
:1006320003110318013E03191F2BC7073208B80024
:100642003808F00036080A128A1592200A128A1116
:10065200710883120313C9007008C8004808B80063
:100662004908B900BA01BB0108300310B80DB90D31
:10067200BA0DBB0DFF3E031D362B3808C4073908DF
:1006820003110318013E0319472BC5073A0803114A
:100692000318013E03194E2BC6073B08031103182A
:1006A200013E0319552BC7073E08B8003F08B900A1
:1006B2004008BA004108BB0018300310BB0CBA0C4A
:1006C200B90CB80CFF3E031D5E2B3808C40739086D
:1006D20003110318013E03196F2BC5073A080311D2
:1006E2000318013E0319762BC6073B0803110318B2
:1006F200013E03197D2BC7070830B8000310BE0D59
:10070200BF0DC00DC10DB80B7F2B43084207B800C7
:10071200B901B90D3808823EC80039080318013EF4
:10072200FF3EC900B12B0130B8000310C40DC50D46
:10073200C60DC70DB80B962BC11FA02BA12BA22B48
:1007420044140130B8000310BE0DBF0DC00DC10D21
:10075200B80BA42BFF30C8070318C90AFF30C9071A
:10076200C61FB42BB52B942BC201C11FB92BBA2BB8
:10077200D62BFF303E05B800FF303F05B900FF30F1
:100782004005BA007F304105BB003B083A043904FA
:1007920038040319CD2BCE2BD12BC201C20AD62B82
:1007A200441CD42BD52BD62BCE2B42080319DA2B83
:1007B200DB2B0C2C0130C407003003180130C507B5
:1007C200003003180130C607003003180130C70794
:1007D200471CEC2BED2B0C2C4408B8004508B90043
:1007E2004608BA004708BB000130BC003B0DBB0CF9
:1007F200BA0CB90CB80CBC0BF72B3B08C7003A0873
:10080200C6003908C5003808C4000130C8070318FB
:10081200C90A0030C9074908803AFF0080307F02C8
:10082200031D152CFF304802031C182C192C242CF4
:100832007F3083120313C7008030C6000030C5002A
:100842000030C400592C831203134908803AFF0078
:1008520080307F02031D2F2C013048020318322CF6
:10086200332C3F2C003083120313C7000030C60024
:100872000030C5000030C400BD01592C831203139F
:100882004808B8003808C300FF30C405FF30C5056A
:100892007F30C6050030C705431C502C512C522C0A
:1008A200C6174308B8000310380CB9003908C7004E
:1008B2003D08B8003808C7044708B3004608B2002C
:1008C2004508B1004408B00008000A168A119B27A7
:1008D2000A128A110A128A159D210A128A11F3013B
:1008E200F30A01300A168A117F270A128A1103308D
:1008F20083120313E5009730E400E40B7E2CE50B32
:100902007E2C1730F3008030F4000A128A156C2016
:100912000A128A11053083120313E4006408F300FB
:1009220001300A168A117F270A128A111130F30048
:100932008030F4000A128A156C200A128A110B30D8
:1009420083120313E4006408F30001300A168A11CB
:100952007F270A128A110B30F3008030F4000A124A
:100962008A156C200A128A110A168A1156270A124F
:100972008A11D030F0000030F1000A168A1168277F
:100982000A128A110030F000F1000A168A11682753
:100992000A128A110A168A115F270A128A110A1686
:1009A2008A1156270A128A11D130F0000030F10064
:1009B2000A168A1168270A128A110030F000F10023
:1009C2000A128A15B9200A128A117108F7007008F2
:1009D200F6000A128A1547200A128A117608831233
:1009E2000313E4006408EB000A168A115F270A1257
:1009F2008A110A168A1156270A128A11D130F0007A
:100A02000030F1000A168A1168270A128A11003092
:100A1200F000F1000A128A15B9200A128A1171082F
:100A2200F7007008F6000A128A1547200A128A1186
:100A3200760883120313E4006408EA000A168A1196
:100A42005F270A128A110A168A1156270A128A1178
:100A5200D130F0000030F1000A168A1168270A121C
:100A62008A110030F000F1000A128A15B9200A1228
:100A72008A110A168A115F270A128A110D3083120F
:100A82000313E500FB30E400E40B452DE50B452D97
:100A92001B3083120313E4006408A0006B08E50016
:100AA200E6016508A1006608A200AF300A128A11A9
:100AB2001D200A128A111B3083120313E4006408FA
:100AC200A0006A08E500E6016508A1006608A20028
:100AD200AD300A128A111D200A128A110A168A11D1
:100AE20056270A128A115130F0000030F1000A161E
:100AF2008A1168270A128A110030F000F1000A12E6
:100B02008A15B9200A128A11700883120313E400AD
:100B12006408EC000A168A115F270A128A110D3046
:100B220083120313E500FB30E400E40B962DE50B82
:100B3200962D0A168A1156270A128A114130F000A0
:100B42000030F1000A168A1168270A128A11003051
:100B5200F000F1000A128A15B9200A128A117008EF
:100B620083120313E4006408ED000A168A115F275A
:100B72000A128A110D3083120313E500FB30E400E0
:100B8200E40BC12DE50BC12D1B3083120313E400CE
:100B92006408A0006D08E500E6016508A10066088A
:100BA200A2006E300A128A111D200A128A118312C3
:100BB20003136C08E400E501E601E7016708F300AE
:100BC2006608F2006508F1006408F00000300A12BD
:100BD2008A15D1220A128A11730883160313A700F9
:100BE2007208A6007108A5007008A40043308312A1
:100BF2000313CD007F30CC000030CB000030CA00A0
:100C02004030B300A030B2000030B1000030B0007C
:100C120083160313270883120313B70083160313E3
:100C2200260883120313B6008316031325088312C2
:100C32000313B50083160313240883120313B400AD
:100C42000A128A1105210A128A1183120313330828
:100C5200D1003208D0003108CF003008CE000A128D
:100C62008A158B230A128A11831203134D088316E5
:100C72000313A700831203134C0883160313A60061
:100C8200831203134B0883160313A5008312031365
:100C92004A0883160313A4002708F3002608F2006B
:100CA2002508F1002408F0000A128A1557220A12B8
:100CB2008A11710883120313E9007008E8004230B8
:100CC200B300C830B2000030B1000030B000680894
:100CD200F0006908F1000030F11BFF30F200F30070
:100CE20001300A128A15D1220A128A11730883125C
:100CF2000313AB007208AA007108A9007008A800CB
:100D020083160313270883120313AF0083160313FA
:100D1200260883120313AE008316031325088312D9
:100D22000313AD0083160313240883120313AC00CC
:100D32000A168A11B7270A128A11831203132B0883
:100D4200B7002A08B6002908B5002808B4000A121C
:100D52008A1105210A128A1183120313330883169A
:100D62000313A30083120313320883160313A20092
:100D720083120313310883160313A1008312031392
:100D8200300883160313A0002308F3002208F200A0
:100D92002108F1002008F0000A128A1557220A12CF
:100DA2008A11710883160313A9007008A8001B306A
:100DB20083120313E4006408A0006908A200680813
:100DC200A100AA300A128A111D200A128A111B30B0
:100DD20083120313E4006408A00083160313290896
:100DE20083120313A200831603132808831203132A
:100DF200A100B1300A128A111D200A128A11F301D0
:100E020002300A168A117F270A128A11AA30F300C9
:100E12000030F4000A128A156C200A128A111E3060
:100E2200F3008030F4000A128A156C200A128A112B
:100E3200831603132908803AFF0080307F02031DC6
:100E4200242F0A3028020318272F282F3B2F203067
:100E5200F3008030F4000A128A156C200A128A11FB
:100E6200B130F3000030F4000A128A156C200A1225
:100E72008A11442FB130F3000030F4000A128A15AF
:100E82006C200A128A112230F3008030F4000A1218
:100E92008A156C200A128A11073083120313E400A8
:100EA2006408F30002300A168A117F270A128A1197
:100EB2000A30831203136D020318602F612F742FFF
:100EC2002030F3008030F4000A128A156C200A12D6
:100ED2008A116E30F3000030F4000A128A156C2079
:100EE2000A128A117D2F6E30F3000030F4000A12CC
:100EF2008A156C200A128A110B3083120313E40044
:100F02006408F30002300A168A117F270A128A1136
:100F12000A30831203136A020318902F912FA42F11
:100F22002030F3008030F4000A128A156C200A1275
:100F32008A11AD30F3000030F4000A128A156C20D9
:100F42000A128A11AD2FAD30F3000030F4000A12FC
:100F52008A156C200A128A110D3083120313E400E1
:100F62006408F30002300A168A117F270A128A11D6
:100F72001930F3008030F4000A128A156C200A122C
:100F82008A110A30831203136B020318C92FCA2F66
:100F9200DD2F2030F3008030F4000A128A156C2015
:100FA2000A128A11AF30F3000030F4000A128A15D7
:100FB2006C200A128A11B52CAF30F3000030F40015
:100FC2000A128A156C200A128A11B52C0A128A1189
:100FD200002883120313E801E901EA01EB01EC01A5
:100FE200ED01EE018313A0308400B3300A168A119A
:100FF2004E270A128A1183010A128A11662CFF1BDC
:101002000A2883137F1883170008840A0319FF0A2A
:10101200080008308A000408840A82070034013478
:1010220000340A34003464340034E83403341034B5
:101032002734543449344D3445343A34003443343B
:101042004F344E3454343A340034533431343A3415
:1010520000342534643400342E3400343034003407
:1010620056340034F200720883120313880086108B
:1010720006140630F1003030F000F00B3E28F10B80
:101082003E28000083120313061008000F30760575
:10109200F80000307705F900760E0F39F000770E70
:1010A200F039F004770E0F39F100F030F11D003005
:1010B200F1040A30F2000030F3000A168A11DB272D
:1010C2000A128A1578087007F60079080318790A57
:1010D2007107F700080081287408FF007308840074
:1010E2000A128A1500200A128A150A128A11092088
:1010F2000A128A150130F3070318F40A0030F407C4
:10110200740883120313FF00730884000A128A15FD
:1011120000200A128A15003A031D902891286D2892
:101122000800F800F401F5017008F200F3017208FA
:10113200F6007308F700781C9F28A028A6287608D6
:10114200F4070318F50A7708F50701300310F60DC6
:10115200F70DFF3E031DA7280310F80C7808031DA6
:10116200B328B4289C287508F1007408F000080020
:101172000A168A1172270A128A1583160313911509
:101182000A168A1172270A128A1583120313130888
:10119200F200F3017208F4007308F5000A168A11CE
:1011A20072270A128A1570037104031DD928DA28DE
:1011B200DE28831603139112E12883160313911676
:1011C20011167508F1007408F00008002830831227
:1011D200031394008316031391018312031320084F
:1011E200A4002108A5002208A6002308A7000230B7
:1011F2000310A40DA50DA60DA70DFF3E031DF92892
:101202002708F3002608F2002508F1002408F00060
:101212000030F7007A30F6001230F5000030F400AA
:101222000A128A15F1210A128A157008FF3E8316E6
:1012320003139300940187150716080078087904B0
:101242000319242925295429FD01FD0A33290130D6
:101252000310F80DF90DFF3E031D29290130FC0092
:101262007C08FD07F91F36293729282979087B02CE
:10127200031D3D2978087A02031C40294129472988
:101282007808FA027908031CFB03FB020130031001
:10129200F90CF80CFF3E031D48290130FD02031D25
:1012A2005329542937297B08F9007A08F8000800E5
:1012B200F501F60170087104031960296129982962
:1012C200F701F70A6F2901300310F00DF10DFF3E0F
:1012D200031D65290130F4007408F707F11F722914
:1012E2007329642901300310F50DF60DFF3E031D2D
:1012F200742971087302031D802970087202031C8D
:10130200832984298B297008F2027108031CF303D4
:10131200F302751401300310F10CF00CFF3E031DB3
:101322008C290130F702031D972998297329760821
:10133200F1007508F00008001430F4007930F30071
:10134200F30BA129F40BA129A62930300A128A1520
:1013520033200A128A150730F4007D30F300F30BB4
:10136200B029F40BB02930300A128A1533200A1240
:101372008A150F30F4004730F300F30BBE29F40B4B
:10138200BE29C32930300A128A1533200A128A155F
:10139200D030F400C930F300F30BCD29F40BCD2982
:1013A200D22938300A128A1533200A128A151030CF
:1013B2000A128A1533200A128A1501300A128A1576
:1013C20033200A128A1506300A128A1533200A12AD
:1013D2008A150C300A128A1533200A128A1508005F
:1013E2000030FC000030FB000030FA000030F90051
:1013F20073087204710470040319002A012A4E2A28
:10140200FD01FD0A112A0130F8000310F00DF10D63
:10141200F20DF30DF80B062A0130F8007808FD07EB
:10142200F31F142A152A042A0130F8000310F90DBB
:10143200FA0DFB0DFC0DF80B172A73087702031D3A
:101442002C2A72087602031D2C2A71087502031DCC
:101452002C2A70087402031C2F2A302A3F2A700893
:10146200F4027108031C710FF5027208031C720F5B
:10147200F6027308031C730FF7027914013003108C
:10148200F30CF20CF10CF00CFF3E031D402A01306C
:10149200FD02031D4D2A4E2A152A7C08F3007B0803
:1014A200F2007A08F1007908F00008000310720DCA
:1014B200730DF4007408FA007A08031D612A622A87
:1014C2006B2A0030F3000030F2000030F1000030EF
:1014D200F000D02A7008F4007108F5007208F600D6
:1014E2007308F7001F300310F70CF60CF50CF40C20
:1014F200FF3E031D742A7408F8007808F900F217F9
:10150200FF30F005FF30F105FF30F2050030F30542
:101512009630FA02FA1F8E2A8F2AA92A7A08803A6E
:10152200973E0318952A962A972A622A01300310B9
:10153200F30CF20CF10CF00CFF3E031D982A013063
:10154200F4007408FA07031DA72AA82A972AC02ABA
:1015520020307A02031CAE2AAF2ABB2A622A01304B
:10156200F4000310F00DF10DF20DF30DF40BB22A9D
:101572000130FA027A08031DBF2AC02AB02A79086C
:101582000319C42AC52AD02AF009F109F209F3097C
:10159200F00A0319F10A0319F20A0319F30A0800FF
:1015A200F80078080319D62AD72AEB2AF31FDA2A79
:1015B200DB2AEB2A7009FA007109FB007209FC00B0
:1015C2007309FD00FA0A0319FB0A0319FC0A03193D
:1015D200FD0AF32A7308FD007208FC007108FB0083
:1015E2007008FA007308720471047004031DFA2A69
:1015F200FB2A042B0030F3000030F2000030F1002F
:101602000030F0008A2B9630F4007408F900162B93
:101612000130F4007408F90701300310FD0CFC0CD2
:10162200FB0CFA0CFF3E031D0E2BFE307D05031D45
:101632001B2B1C2B092B382B0130F4007408F907E3
:101642000130FA07003003180130FB07003003189D
:101652000130FC07003003180130FD070130031090
:10166200FD0CFC0CFB0CFA0CFF3E031D302BFF3073
:101672007D05031D3D2B3E2B1D2B4A2B0130F9020C
:101682000130F4000310FA0DFB0DFC0DFD0DF40BFF
:10169200432BFC1B4D2B4E2B542B0230790203188B
:1016A200532B542B3F2B7918572B582B602BFF3081
:1016B200FA05FF30FB057F30FC05FF30FD05031006
:1016C200F90C7908F400F501F601F701183003105E
:1016D200F40DF50DF60DF70DFF3E031D682B740892
:1016E200FA047508FB047608FC047708FD04780800
:1016F20003197C2B7D2B822BF31F802B812B822BBA
:10170200FD177D08F3007C08F2007B08F1007A08DF
:10171200F00008008312031351088039D2005208E6
:10172200DB005108D2005207D3005308E200D01F59
:101732009B2B9C2B9D2B621462080319A12BA22BBD
:10174200B22B620A031DA62BA72BAF2B0030D100B0
:101752000030D0000030CF000030CE00D017D101D1
:10176200BA2B0030D1000030D0000030CF00003062
:10177200CE004D088039D2005208DB064D08D20057
:101782005207D3005308E300CC1FC82BC92BCA2B26
:10179200631463080319CE2BCF2BDF2B630A031DBF
:1017A200D32BD42BDC2B0030CD000030CC0000300A
:1017B200CB000030CA00CC17CD01E72B0030CD00A2
:1017C2000030CC000030CB000030CA004D084C0481
:1017D2004B044A04031DEE2BEF2B082C0030D100E2
:1017E2000030D0000030CF000030CE008030D00476
:1017F2007F30D1045B08D2005208D1045108CD00D9
:101802005008CC004F08CB004E08CA00672D620872
:10181200031D0C2C0D2C162C0030CD000030CC00FA
:101822000030CB000030CA00672D6208D200D3011D
:101832005308D50063085202D400031CD503540890
:101842007F3EDC0055080318013E003EDD005108D2
:10185200DA005008D9004F08D8004E08D7000030EF
:10186200D1000030D0000030CF000030CE00003078
:10187200E1000030E0000030DF000030DE00E30174
:101882008C2C63080319462C472C672C0130D2009C
:101892000310D70DD80DD90DDA0DD20B492C01301A
:1018A200D2000310CE0DCF0DD00DD10DD20B522C84
:1018B200E11F5C2C5D2C5E2C4E140130D200031013
:1018C200DE0DDF0DE00DE10DD20B602C4D085A024A
:1018D200031D752C4C085902031D752C4B08580228
:1018E200031D752C4A085702031C782C792C882C6E
:1018F20061174A08D7024B08031C4B0FD8024C0849
:10190200031C4C0FD9024D08031C4D0FDA020130A3
:10191200D2005208E3071A306302031C912C922C66
:10192200422C5A085904580457040319992C9A2C2A
:10193200B92C5E14B92C0130D2000310CE0DCF0D9C
:10194200D00DD10DD20B9E2CE11FA82CA92CAA2CB4
:101952004E140130D2000310DE0DDF0DE00DE10D5B
:10196200D20BAC2CFF30DC070318DD0AFF30DD0799
:10197200D01FBC2CBD2C9C2CE301E11FC12CC22C1E
:10198200DE2CFF305E05D200FF305F05D300FF3052
:101992006005D4007F306105D50055085404530416
:1019A20052040319D52CD62CD92CE301E30ADE2CE0
:1019B2004E1CDC2CDD2CDE2CD62C63080319E22C09
:1019C200E32C142D0130CE07003003180130CF076D
:1019D200003003180130D007003003180130D1075E
:1019E200511CF42CF52C142D4E08D2004F08D300B4
:1019F2005008D4005108D5000130D600550DD50C41
:101A0200D40CD30CD20CD60BFF2C5508D1005408A1
:101A1200D0005308CF005208CE000130DC07031873
:101A2200DD0A0030DD075D08803AFF0080307F026A
:101A3200031D1D2DFF305C02031C202D212D2F2D97
:101A4200FF3083120313DC000030DD000030D100D0
:101A52000030D0000030CF000030CE0083120313DC
:101A62005D08803AFF0080307F02031D3A2D01306D
:101A72005C0203183D2D3E2D4B2D83120313DC0116
:101A8200DD010030D1000030D0000030CF00003046
:101A9200CE00DB01831203135C08D2005208E2007D
:101AA200621C542D552D572DD0175B2D7F30D2003F
:101AB2005208D0056208D2000310520CD30053081A
:101AC200D1005B08D2005208D104FF2B0800730832
:101AD200803983120313A0002008F8007308A000C5
:101AE2002007A1002108FA00F21F782D792D7A2D06
:101AF2007A147A0803197E2D7F2D8F2D7A0A031D01
:101B0200832D842D8C2D0030F3000030F200003044
:101B1200F1000030F000F217F301972D0030F300CE
:101B22000030F2000030F1000030F0007708803918
:101B3200A0002008F900790878060319A12DA22D2A
:101B4200A32D78177708A0002007A1002108F9002B
:101B5200F61FAC2DAD2DAE2D791479080319B22DD7
:101B6200B32DC32D790A031DB72DB82DC02D00301A
:101B7200F7000030F6000030F5000030F400F617F0
:101B8200F701CB2D0030F7000030F6000030F500F1
:101B92000030F4007A0879020318D02DD12D152EC9
:101BA200781FD42DD52DD92D8030A0002008F8061D
:101BB2007A08A0002008FB007908A0002008FA009B
:101BC2007B08A0002008F9007008A0002008FB0094
:101BD2007408A0002008F0007B08A0002008F40090
:101BE2007108A0002008FB007508A0002008F10081
:101BF2007B08A0002008F5007208A0002008FB0066
:101C02007608A0002008F2007B08A0002008F60059
:101C12007308A0002008FB007708A0002008F3004A
:101C22007B08A0002008F700FB017908A000A101B1
:101C32002108A3007A082002A200031CA3032308A0
:101C4200803AFF0080307F02031D292E1A302202C3
:101C5200031C2C2E2D2E6E2E730872047104700438
:101C6200031D342E362E0130372E0030831203131B
:101C7200A0002008FB000030F3000030F20000302A
:101C8200F1000030F0007908A0002008FA00742E5C
:101C92007B1C4C2E4D2E582E7B0883120313A00062
:101CA2000310200C0138A1002108FB005A2E03105A
:101CB200FB0C701C5D2E5E2E5F2EFB170130831213
:101CC2000313A000730DF30CF20CF10CF00CA00B3B
:101CD200632E0130A0002008FA0779087A02031C5B
:101CE200732E742E492E781B772E782EC72E7A08E3
:101CF200031D7C2E7D2E862E0030F3000030F20074
:101D02000030F1000030F000FF2F7408F007750872
:101D120003110318013E03198F2EF10776080311F0
:101D22000318013E0319962EF207770803110318D0
:101D3200013E03199D2EF307731CA02EA12E7F2FA7
:101D42007B1CA42EA52EB02E7B0883120313A000A9
:101D52000310200C0138A1002108FB00B22E031051
:101D6200FB0C701CB52EB62EB72EFB17013083125A
:101D72000313A000730DF30CF20CF10CF00CA00B8A
:101D8200BB2E0130A0002008FA077F2F7308803A8B
:101D9200FF007708803A7F02031DD92E760872026F
:101DA200031DD92E75087102031DD92E7408700205
:101DB2000318DC2EDD2E372FFF3083120313A00011
:101DC200FF30A100FF30A200FF30A3007408A4007E
:101DD2007508A5007608A6007708A7007008A40277
:101DE2007108031C710FF62EF72EA5027208031C50
:101DF200720FFC2EFD2EA6027308031C730F022F16
:101E0200032FA7022408A00725080318250F0A2F6D
:101E12000B2FA10726080318260F102F112FA20738
:101E220027080318270AA3072308F3002208F20051
:101E32002108F1002008F0008030A0002008F806F8
:101E4200FB09FB0A7B08031D272F282F452F013092
:101E5200F007003003180130F10700300318013099
:101E6200F207003003180130F307452F7408F0021F
:101E72007508031C750FF1027608031C760FF20237
:101E82007708031C770FF30273087204710470045D
:101E9200031D4C2F4D2F7B2F7B08031D512F522FDB
:101EA2007B2F0030F3000030F2000030F1000030F0
:101EB200F000FF2F013083120313A0000310F00D76
:101EC200F10DF20DF30DA00B5F2FFB1F692F6A2F8F
:101ED2006B2F70147B1C6E2F6F2F722F0314FB0D50
:101EE200742F0310FB0D7A080319782F792F7B2F9B
:101EF2000130FA02F21F7E2F7F2F5B2FF901FB1FA9
:101F0200832F842F922F7B087F390319892F8A2FE1
:101F12008D2FF901F90A922F701C902F912F922F79
:101F22008A2F79080319962F972FCD2F0130F007AA
:101F3200003003180130F107003003180130F207B6
:101F4200003003180130F307731CA82FA92FCD2FDF
:101F5200700883120313A0007108A1007208A20086
:101F62007308A3000130A400230DA30CA20CA10C42
:101F7200A00CA40BB52F2308F3002208F2002108BD
:101F8200F1002008F0007A0A0319C82FC92FCD2FBB
:101F92000130A0002008FA077A0A0319D12FD22FA4
:101FA200D72F7A08031DD62FD72FE52F0030F30045
:101FB2000030F2000030F1000030F0007A08031D1A
:101FC200E32FE42FE52FF8017A1CE82FE92FEB2FFE
:101FD200F217F12F7F3083120313A0002008F205BD
:101FE2007A0883120313A0000310200CA100210819
:0E1FF200F300F81FFD2FFE2FFF2FF31708003E
:102E9C0064008001840A04060319003404064F2FD1
:102EAC000A168A1172270A168A1183160313111433
:102EBC0008000A168A1172270A168A118316031340
:102ECC00111508000A168A1172270A168A11700841
:102EDC008312031393000800831603131419772F1E
:102EEC00782F722F11081F39031D7D2F7E2F722F03
:102EFC000800F4007403031D842F852F8D2F730895
:102F0C00803E0A128A1533200A168A119A2F023033
:102F1C007406031D922F932F9A2F7308C03E0A122A
:102F2C008A1533200A168A110800831603138601AA
:102F3C008801831603178901880183120313850105
:102F4C008601870188010030A3000130A200863081
:102F5C00A100A030A0000A128A15E7200A168A11D7
:102F6C000800803083120313AB062F08F3002E08E1
:102F7C00F2002D08F1002C08F0002B08F7002A08AD
:102F8C00F6002908F5002808F4000A128A156825AD
:102F9C000A168A11730883120313AB007208AA0075
:102FAC007108A9007008A8000800F401F501701C54
:102FBC00E02FE12FE72F7208F4070318F50A7308C6
:102FCC00F50701300310F20DF30DFF3E031DE82F42
:102FDC0001300310F10CF00CFF3E031DEF2F7008B5
:102FEC007104031DFA2FFB2FDD2F7508F1007408F7
:042FFC00F0000800D9
:04400E00D4E0FFFFFC
:00000001FF
