:020000040000FA
:060000000A128A11FC2F18
:100EE2000A128A1192270A128A110A128A11A62755
:100EF2000A128A110A128A110028F2007208831259
:100F020003138800061386170630F1003030F00014
:100F1200F00B892FF10B892F000083120313861324
:100F220008000330831603138500860187018801B8
:100F32008316031789018801081488148312031386
:100F4200850186018701880108001A30F400F83013
:100F5200F300F30BAA2FF40BAA2F000030300A1271
:100F62008A117E270A128A110730F4007D30F300BD
:100F7200F30BB92FF40BB92F30300A128A117E27E6
:100F82000A128A11C730F300C62FF30BC52FC92FDF
:100F9200CA2F30300A128A117E270A128A11C730EC
:100FA200F300D32FF30BD22FD62FD72F38300A12BC
:100FB2008A117E270A128A1110300A128A117E279C
:100FC2000A128A1101300A128A117E270A128A1124
:100FD20006300A128A117E270A128A110C300A126E
:100FE2008A117E270A128A1180300A128A117E27FC
:0E0FF2000A128A11080083010A128A11712F57
:04400E00D4E0FFFFFC
:00000001FF
