:020000040000FA
:060000000A128A110C280F
:10000800FE00030EF7000A08F8000A128A111928E0
:100018000A128A110F28F001F101F201F301F4012B
:10002800F50183010A128A117E28831203138C1D9D
:100038001E281F2877281412141B23282428282850
:10004800941F272828282F281308F6007608F5007B
:1000580014139413141683160313941A342835288A
:1000680053281419382839285328831203131308DE
:10007800F6007608F5008C11141683160313141C69
:10008800462847284128831203131308F6007608E8
:10009800F300A630F600F60B4F2800007428941AD7
:1000A800562857287428141D5A285B287428831248
:1000B80003131308F6007608F500831603131410CB
:1000C80083120313050893001416A630F600F60BE6
:1000D8006B280000831603131418732874286E28DD
:1000E800831203138C1178088A00770E8300FE0EA2
:1000F8007E0E09000A128A11D9200A128A11831267
:100108000313061C882889289C287108031D8D283C
:100118008E289C280F300506031D932894289628BE
:1001280085019A280130FA007A088507F101F10A59
:10013800861C9F28A028B1287008031DA428A5287C
:10014800B1280130850210300502031CAC28AD2807
:10015800AF280F308500F001F00A0618B428B5283A
:10016800B628F1018618B928BA288328F00183280F
:100178000A128A110C28F9007908831603139300D0
:1001880036308312031394008030831603139400CF
:1001980001309100871507168B170B17831203136D
:1001A8008C11831603138C15080083160317880116
:1001B80089018316031385018601061486148312A8
:1001C8000313850140300A128A11BF200A128A11CE
:0201D80008001D
:04400E00D4E0FFFFFC
:00000001FF
