:020000040000FA
:060000000A128A110C280F
:10000800FE00030EF1000A08F2000A128A111628EF
:100018000A128A110F28F401F501F60183010A1268
:100028008A11D5288B130B1C1A281B282D288312FC
:100038000313061C202821282D280130F000700801
:10004800850710300502031C2A282B282C28850137
:100058000B100B1C30283128422883120313861CEE
:100068003628372842280508031D3B283C283F2806
:100078000F3085004128013085020B1083120313CD
:100088008C1D47284828A0281412141B4C284D28DA
:100098005128941F5028512858281308F000700838
:1000A800F60014139413141683160313941A5D2878
:1000B8005E287C281419612862287C28831203137F
:1000C8001308F0007008F6008C1114168316031339
:1000D800141C6F2870286A28831203131308F00071
:1000E8007008F400A630F000F00B782800009D2876
:1000F800941A7F2880289D28141D832884289D28E9
:10010800831203131308F0007008F6008316031314
:10011800141083120313050893001416A630F00078
:10012800F00B942800008316031314189C289D28AC
:100138009728831203138C1172088A00710E8300AA
:10014800FE0E7E0E0900F300730883160313930056
:1001580036308312031394008030831603139400FF
:1001680001309100871507168B170B17831203139D
:100178008C11831603138C1508008316031385014D
:100188008601061486149601161496148312031316
:100198008501860140300A128A11A7200A128A11A5
:1001A80008000A128A11C1200A128A110A128A1139
:0201B8000C2811
:04400E00D4E0FFFFFC
:00000001FF
