:020000040000FA
:060000000A128A110C280F
:10000800FE00030EF1000A08F2000A128A11B02855
:100018000A128A110F28F801F901FA01FB0183017C
:100028000A128A112129F5007B28831203139F12D3
:100038001F129F111F11AF28831203139F121F1243
:100048009F111F15AF28831203139F121F129F15AC
:100058001F11AF28831203139F121F129F151F151C
:10006800AF28831203139F121F169F111F11AF2869
:10007800831203139F121F169F111F15AF28831297
:1000880003139F121F169F151F11AF288312031306
:100098009F121F169F151F15AF28831203139F1653
:1000A8001F129F111F11AF28831203139F161F12CF
:1000B8009F111F15AF28831203139F161F129F1538
:1000C8001F11AF28831203139F161F129F151F15A8
:1000D800AF28831203139F161F169F111F11AF28F5
:1000E800831203139F161F169F111F15AF2875083B
:1000F800F300F4017408003A03198328AF28730841
:10010800003A03191928013A03192028033A031958
:100118002728013A03192E28073A03193528013AE6
:1001280003193C28033A03194328013A03194A28BA
:100138000F3A03195128013A03195828033A0319A9
:100148005F28013A03196628073A03196D28013A0E
:1001580003197428AF2808008B13831203138C1D0E
:10016800B628B7280F291412141BBB28BC28C0288E
:10017800941FBF28C028C7281308F0007008FB0088
:1001880014139413141683160313941ACC28CD2829
:10019800EB281419D028D128EB288312031313084D
:1001A800F0007008FB008C11141683160313141C3E
:1001B800DE28DF28D928831203131308F0007008FB
:1001C800F900A630F000F00BE72800000C29941A7B
:1001D800EE28EF280C29141DF228F3280C29831285
:1001E80003131308F0007008FB00831603131410A0
:1001F80078088312031393001416A630F000F00B4E
:10020800032900008316031314180B290C29062947
:10021800831203138C110C1F1229132919290C138B
:100228001E08F0007008F8009E018B1772088A00FB
:10023800710E8300FE0E7E0E09000A128A114121FA
:100248000A128A110A128A117A210A128A110030B6
:100258000A128A1117200A128A11831203139F1493
:100268001A30F700F830F600F60B3829F70B382962
:10027800000031290A128A110C28831603178801F5
:100288008901081488140330831603138500860136
:10029800880183120313860188018B170B178316B5
:1002A80003130C17831203130C1350300A128A110C
:1002B80060210A128A110800F300730883160313D9
:1002C800930036308312031394008030831603138F
:1002D800940001309100871507168B170B178312AE
:1002E80003138C11831603138C1508008312031350
:1002F8001F14831603139F139F121F120C178312C8
:0A03080003130C139F131F170800C6
:04400E00D4E0FFFFFC
:00000001FF
